{
  "_format": "hh-sol-artifact-1",
  "contractName": "NFT",
  "sourceName": "contracts/NFT.sol",
  "abi": [
    {
      "inputs": [
        {
          "internalType": "string",
          "name": "tokenURI",
          "type": "string"
        },
        {
          "internalType": "address",
          "name": "marketAddress",
          "type": "address"
        }
      ],
      "stateMutability": "nonpayable",
      "type": "constructor"
    },
    {
      "anonymous": false,
      "inputs": [
        {
          "indexed": true,
          "internalType": "address",
          "name": "account",
          "type": "address"
        },
        {
          "indexed": true,
          "internalType": "address",
          "name": "operator",
          "type": "address"
        },
        {
          "indexed": false,
          "internalType": "bool",
          "name": "approved",
          "type": "bool"
        }
      ],
      "name": "ApprovalForAll",
      "type": "event"
    },
    {
      "anonymous": false,
      "inputs": [
        {
          "indexed": true,
          "internalType": "address",
          "name": "previousOwner",
          "type": "address"
        },
        {
          "indexed": true,
          "internalType": "address",
          "name": "newOwner",
          "type": "address"
        }
      ],
      "name": "OwnershipTransferred",
      "type": "event"
    },
    {
      "anonymous": false,
      "inputs": [
        {
          "indexed": true,
          "internalType": "address",
          "name": "operator",
          "type": "address"
        },
        {
          "indexed": true,
          "internalType": "address",
          "name": "from",
          "type": "address"
        },
        {
          "indexed": true,
          "internalType": "address",
          "name": "to",
          "type": "address"
        },
        {
          "indexed": false,
          "internalType": "uint256[]",
          "name": "ids",
          "type": "uint256[]"
        },
        {
          "indexed": false,
          "internalType": "uint256[]",
          "name": "values",
          "type": "uint256[]"
        }
      ],
      "name": "TransferBatch",
      "type": "event"
    },
    {
      "anonymous": false,
      "inputs": [
        {
          "indexed": true,
          "internalType": "address",
          "name": "operator",
          "type": "address"
        },
        {
          "indexed": true,
          "internalType": "address",
          "name": "from",
          "type": "address"
        },
        {
          "indexed": true,
          "internalType": "address",
          "name": "to",
          "type": "address"
        },
        {
          "indexed": false,
          "internalType": "uint256",
          "name": "id",
          "type": "uint256"
        },
        {
          "indexed": false,
          "internalType": "uint256",
          "name": "value",
          "type": "uint256"
        }
      ],
      "name": "TransferSingle",
      "type": "event"
    },
    {
      "anonymous": false,
      "inputs": [
        {
          "indexed": false,
          "internalType": "string",
          "name": "value",
          "type": "string"
        },
        {
          "indexed": true,
          "internalType": "uint256",
          "name": "id",
          "type": "uint256"
        }
      ],
      "name": "URI",
      "type": "event"
    },
    {
      "inputs": [
        {
          "internalType": "address",
          "name": "account",
          "type": "address"
        },
        {
          "internalType": "uint256",
          "name": "id",
          "type": "uint256"
        }
      ],
      "name": "balanceOf",
      "outputs": [
        {
          "internalType": "uint256",
          "name": "",
          "type": "uint256"
        }
      ],
      "stateMutability": "view",
      "type": "function"
    },
    {
      "inputs": [
        {
          "internalType": "address[]",
          "name": "accounts",
          "type": "address[]"
        },
        {
          "internalType": "uint256[]",
          "name": "ids",
          "type": "uint256[]"
        }
      ],
      "name": "balanceOfBatch",
      "outputs": [
        {
          "internalType": "uint256[]",
          "name": "",
          "type": "uint256[]"
        }
      ],
      "stateMutability": "view",
      "type": "function"
    },
    {
      "inputs": [
        {
          "internalType": "uint256",
          "name": "id",
          "type": "uint256"
        }
      ],
      "name": "burn",
      "outputs": [],
      "stateMutability": "nonpayable",
      "type": "function"
    },
    {
      "inputs": [],
      "name": "currentId",
      "outputs": [
        {
          "internalType": "uint256",
          "name": "",
          "type": "uint256"
        }
      ],
      "stateMutability": "view",
      "type": "function"
    },
    {
      "inputs": [
        {
          "internalType": "address",
          "name": "account",
          "type": "address"
        },
        {
          "internalType": "address",
          "name": "operator",
          "type": "address"
        }
      ],
      "name": "isApprovedForAll",
      "outputs": [
        {
          "internalType": "bool",
          "name": "",
          "type": "bool"
        }
      ],
      "stateMutability": "view",
      "type": "function"
    },
    {
      "inputs": [
        {
          "internalType": "address",
          "name": "reciever",
          "type": "address"
        }
      ],
      "name": "mint",
      "outputs": [],
      "stateMutability": "nonpayable",
      "type": "function"
    },
    {
      "inputs": [],
      "name": "owner",
      "outputs": [
        {
          "internalType": "address",
          "name": "",
          "type": "address"
        }
      ],
      "stateMutability": "view",
      "type": "function"
    },
    {
      "inputs": [],
      "name": "renounceOwnership",
      "outputs": [],
      "stateMutability": "nonpayable",
      "type": "function"
    },
    {
      "inputs": [
        {
          "internalType": "address",
          "name": "from",
          "type": "address"
        },
        {
          "internalType": "address",
          "name": "to",
          "type": "address"
        },
        {
          "internalType": "uint256[]",
          "name": "ids",
          "type": "uint256[]"
        },
        {
          "internalType": "uint256[]",
          "name": "amounts",
          "type": "uint256[]"
        },
        {
          "internalType": "bytes",
          "name": "data",
          "type": "bytes"
        }
      ],
      "name": "safeBatchTransferFrom",
      "outputs": [],
      "stateMutability": "nonpayable",
      "type": "function"
    },
    {
      "inputs": [
        {
          "internalType": "address",
          "name": "from",
          "type": "address"
        },
        {
          "internalType": "address",
          "name": "to",
          "type": "address"
        },
        {
          "internalType": "uint256",
          "name": "id",
          "type": "uint256"
        },
        {
          "internalType": "uint256",
          "name": "amount",
          "type": "uint256"
        },
        {
          "internalType": "bytes",
          "name": "data",
          "type": "bytes"
        }
      ],
      "name": "safeTransferFrom",
      "outputs": [],
      "stateMutability": "nonpayable",
      "type": "function"
    },
    {
      "inputs": [
        {
          "internalType": "address",
          "name": "operator",
          "type": "address"
        },
        {
          "internalType": "bool",
          "name": "approved",
          "type": "bool"
        }
      ],
      "name": "setApprovalForAll",
      "outputs": [],
      "stateMutability": "nonpayable",
      "type": "function"
    },
    {
      "inputs": [
        {
          "internalType": "bytes4",
          "name": "interfaceId",
          "type": "bytes4"
        }
      ],
      "name": "supportsInterface",
      "outputs": [
        {
          "internalType": "bool",
          "name": "",
          "type": "bool"
        }
      ],
      "stateMutability": "view",
      "type": "function"
    },
    {
      "inputs": [
        {
          "internalType": "address",
          "name": "newOwner",
          "type": "address"
        }
      ],
      "name": "transferOwnership",
      "outputs": [],
      "stateMutability": "nonpayable",
      "type": "function"
    },
    {
      "inputs": [
        {
          "internalType": "uint256",
          "name": "",
          "type": "uint256"
        }
      ],
      "name": "uri",
      "outputs": [
        {
          "internalType": "string",
          "name": "",
          "type": "string"
        }
      ],
      "stateMutability": "view",
      "type": "function"
    }
  ],
  "bytecode": "0x60806040523480156200001157600080fd5b506040516200392238038062003922833981810160405281019062000037919062000440565b8162000049816200008560201b60201c565b506200006a6200005e620000a160201b60201c565b620000a960201b60201c565b6200007d8160016200016f60201b60201c565b50506200073b565b80600290805190602001906200009d92919062000307565b5050565b600033905090565b6000600360009054906101000a900473ffffffffffffffffffffffffffffffffffffffff16905081600360006101000a81548173ffffffffffffffffffffffffffffffffffffffff021916908373ffffffffffffffffffffffffffffffffffffffff1602179055508173ffffffffffffffffffffffffffffffffffffffff168173ffffffffffffffffffffffffffffffffffffffff167f8be0079c531659141344cd1fd0a4f28419497f9722a3daafe3b4186f6b6457e060405160405180910390a35050565b6200019162000183620000a160201b60201c565b83836200019560201b60201c565b5050565b8173ffffffffffffffffffffffffffffffffffffffff168373ffffffffffffffffffffffffffffffffffffffff16141562000207576040517f08c379a0000000000000000000000000000000000000000000000000000000008152600401620001fe90620004ef565b60405180910390fd5b80600160008573ffffffffffffffffffffffffffffffffffffffff1673ffffffffffffffffffffffffffffffffffffffff16815260200190815260200160002060008473ffffffffffffffffffffffffffffffffffffffff1673ffffffffffffffffffffffffffffffffffffffff16815260200190815260200160002060006101000a81548160ff0219169083151502179055508173ffffffffffffffffffffffffffffffffffffffff168373ffffffffffffffffffffffffffffffffffffffff167f17307eab39ab6107e8899845ad3d59bd9653f200f220920489ca2b5937696c3183604051620002fa9190620004d2565b60405180910390a3505050565b8280546200031590620005f7565b90600052602060002090601f01602090048101928262000339576000855562000385565b82601f106200035457805160ff191683800117855562000385565b8280016001018555821562000385579182015b828111156200038457825182559160200191906001019062000367565b5b50905062000394919062000398565b5090565b5b80821115620003b357600081600090555060010162000399565b5090565b6000620003ce620003c8846200053a565b62000511565b905082815260208101848484011115620003e757600080fd5b620003f4848285620005c1565b509392505050565b6000815190506200040d8162000721565b92915050565b600082601f8301126200042557600080fd5b815162000437848260208601620003b7565b91505092915050565b600080604083850312156200045457600080fd5b600083015167ffffffffffffffff8111156200046f57600080fd5b6200047d8582860162000413565b92505060206200049085828601620003fc565b9150509250929050565b620004a58162000595565b82525050565b6000620004ba60298362000570565b9150620004c782620006d2565b604082019050919050565b6000602082019050620004e960008301846200049a565b92915050565b600060208201905081810360008301526200050a81620004ab565b9050919050565b60006200051d62000530565b90506200052b82826200062d565b919050565b6000604051905090565b600067ffffffffffffffff82111562000558576200055762000692565b5b6200056382620006c1565b9050602081019050919050565b600082825260208201905092915050565b60006200058e82620005a1565b9050919050565b60008115159050919050565b600073ffffffffffffffffffffffffffffffffffffffff82169050919050565b60005b83811015620005e1578082015181840152602081019050620005c4565b83811115620005f1576000848401525b50505050565b600060028204905060018216806200061057607f821691505b6020821081141562000627576200062662000663565b5b50919050565b6200063882620006c1565b810181811067ffffffffffffffff821117156200065a576200065962000692565b5b80604052505050565b7f4e487b7100000000000000000000000000000000000000000000000000000000600052602260045260246000fd5b7f4e487b7100000000000000000000000000000000000000000000000000000000600052604160045260246000fd5b6000601f19601f8301169050919050565b7f455243313135353a2073657474696e6720617070726f76616c2073746174757360008201527f20666f722073656c660000000000000000000000000000000000000000000000602082015250565b6200072c8162000581565b81146200073857600080fd5b50565b6131d7806200074b6000396000f3fe608060405234801561001057600080fd5b50600436106100e95760003560e01c8063715018a61161008c578063e00dd16111610066578063e00dd16114610246578063e985e9c514610264578063f242432a14610294578063f2fde38b146102b0576100e9565b8063715018a6146102025780638da5cb5b1461020c578063a22cb4651461022a576100e9565b80632eb2c2d6116100c85780632eb2c2d61461017e57806342966c681461019a5780634e1273f4146101b65780636a627842146101e6576100e9565b8062fdd58e146100ee57806301ffc9a71461011e5780630e89341c1461014e575b600080fd5b610108600480360381019061010391906120a5565b6102cc565b604051610115919061284c565b60405180910390f35b6101386004803603810190610133919061214d565b610395565b604051610145919061262f565b60405180910390f35b6101686004803603810190610163919061219f565b610477565b604051610175919061264a565b60405180910390f35b61019860048036038101906101939190611f1b565b61050b565b005b6101b460048036038101906101af919061219f565b6105ac565b005b6101d060048036038101906101cb91906120e1565b610637565b6040516101dd91906125d6565b60405180910390f35b61020060048036038101906101fb9190611eb6565b6107e8565b005b61020a610896565b005b61021461091e565b60405161022191906124f9565b60405180910390f35b610244600480360381019061023f9190612069565b610948565b005b61024e61095e565b60405161025b919061284c565b60405180910390f35b61027e60048036038101906102799190611edf565b61096f565b60405161028b919061262f565b60405180910390f35b6102ae60048036038101906102a99190611fda565b610a03565b005b6102ca60048036038101906102c59190611eb6565b610aa4565b005b60008073ffffffffffffffffffffffffffffffffffffffff168373ffffffffffffffffffffffffffffffffffffffff16141561033d576040517f08c379a0000000000000000000000000000000000000000000000000000000008152600401610334906126ac565b60405180910390fd5b60008083815260200190815260200160002060008473ffffffffffffffffffffffffffffffffffffffff1673ffffffffffffffffffffffffffffffffffffffff16815260200190815260200160002054905092915050565b60007fd9b67a26000000000000000000000000000000000000000000000000000000007bffffffffffffffffffffffffffffffffffffffffffffffffffffffff1916827bffffffffffffffffffffffffffffffffffffffffffffffffffffffff1916148061046057507f0e89341c000000000000000000000000000000000000000000000000000000007bffffffffffffffffffffffffffffffffffffffffffffffffffffffff1916827bffffffffffffffffffffffffffffffffffffffffffffffffffffffff1916145b80610470575061046f82610b9c565b5b9050919050565b60606002805461048690612abb565b80601f01602080910402602001604051908101604052809291908181526020018280546104b290612abb565b80156104ff5780601f106104d4576101008083540402835291602001916104ff565b820191906000526020600020905b8154815290600101906020018083116104e257829003601f168201915b50505050509050919050565b610513610c06565b73ffffffffffffffffffffffffffffffffffffffff168573ffffffffffffffffffffffffffffffffffffffff161480610559575061055885610553610c06565b61096f565b5b610598576040517f08c379a000000000000000000000000000000000000000000000000000000000815260040161058f9061274c565b60405180910390fd5b6105a58585858585610c0e565b5050505050565b6105b4610c06565b73ffffffffffffffffffffffffffffffffffffffff166105d261091e565b73ffffffffffffffffffffffffffffffffffffffff1614610628576040517f08c379a000000000000000000000000000000000000000000000000000000000815260040161061f906127ac565b60405180910390fd5b61063433826001610f6e565b50565b6060815183511461067d576040517f08c379a0000000000000000000000000000000000000000000000000000000008152600401610674906127ec565b60405180910390fd5b6000835167ffffffffffffffff8111156106c0577f4e487b7100000000000000000000000000000000000000000000000000000000600052604160045260246000fd5b6040519080825280602002602001820160405280156106ee5781602001602082028036833780820191505090505b50905060005b84518110156107dd57610787858281518110610739577f4e487b7100000000000000000000000000000000000000000000000000000000600052603260045260246000fd5b602002602001015185838151811061077a577f4e487b7100000000000000000000000000000000000000000000000000000000600052603260045260246000fd5b60200260200101516102cc565b8282815181106107c0577f4e487b7100000000000000000000000000000000000000000000000000000000600052603260045260246000fd5b602002602001018181525050806107d690612b1e565b90506106f4565b508091505092915050565b6107f0610c06565b73ffffffffffffffffffffffffffffffffffffffff1661080e61091e565b73ffffffffffffffffffffffffffffffffffffffff1614610864576040517f08c379a000000000000000000000000000000000000000000000000000000000815260040161085b906127ac565b60405180910390fd5b61086e600461118b565b6108938161087c60046111a1565b6001604051806020016040528060008152506111af565b50565b61089e610c06565b73ffffffffffffffffffffffffffffffffffffffff166108bc61091e565b73ffffffffffffffffffffffffffffffffffffffff1614610912576040517f08c379a0000000000000000000000000000000000000000000000000000000008152600401610909906127ac565b60405180910390fd5b61091c6000611345565b565b6000600360009054906101000a900473ffffffffffffffffffffffffffffffffffffffff16905090565b61095a610953610c06565b838361140b565b5050565b600061096a60046111a1565b905090565b6000600160008473ffffffffffffffffffffffffffffffffffffffff1673ffffffffffffffffffffffffffffffffffffffff16815260200190815260200160002060008373ffffffffffffffffffffffffffffffffffffffff1673ffffffffffffffffffffffffffffffffffffffff16815260200190815260200160002060009054906101000a900460ff16905092915050565b610a0b610c06565b73ffffffffffffffffffffffffffffffffffffffff168573ffffffffffffffffffffffffffffffffffffffff161480610a515750610a5085610a4b610c06565b61096f565b5b610a90576040517f08c379a0000000000000000000000000000000000000000000000000000000008152600401610a879061270c565b60405180910390fd5b610a9d8585858585611578565b5050505050565b610aac610c06565b73ffffffffffffffffffffffffffffffffffffffff16610aca61091e565b73ffffffffffffffffffffffffffffffffffffffff1614610b20576040517f08c379a0000000000000000000000000000000000000000000000000000000008152600401610b17906127ac565b60405180910390fd5b600073ffffffffffffffffffffffffffffffffffffffff168173ffffffffffffffffffffffffffffffffffffffff161415610b90576040517f08c379a0000000000000000000000000000000000000000000000000000000008152600401610b87906126cc565b60405180910390fd5b610b9981611345565b50565b60007f01ffc9a7000000000000000000000000000000000000000000000000000000007bffffffffffffffffffffffffffffffffffffffffffffffffffffffff1916827bffffffffffffffffffffffffffffffffffffffffffffffffffffffff1916149050919050565b600033905090565b8151835114610c52576040517f08c379a0000000000000000000000000000000000000000000000000000000008152600401610c499061280c565b60405180910390fd5b600073ffffffffffffffffffffffffffffffffffffffff168473ffffffffffffffffffffffffffffffffffffffff161415610cc2576040517f08c379a0000000000000000000000000000000000000000000000000000000008152600401610cb99061272c565b60405180910390fd5b6000610ccc610c06565b9050610cdc8187878787876117fa565b60005b8451811015610ed9576000858281518110610d23577f4e487b7100000000000000000000000000000000000000000000000000000000600052603260045260246000fd5b602002602001015190506000858381518110610d68577f4e487b7100000000000000000000000000000000000000000000000000000000600052603260045260246000fd5b60200260200101519050600080600084815260200190815260200160002060008b73ffffffffffffffffffffffffffffffffffffffff1673ffffffffffffffffffffffffffffffffffffffff16815260200190815260200160002054905081811015610e09576040517f08c379a0000000000000000000000000000000000000000000000000000000008152600401610e009061278c565b60405180910390fd5b81810360008085815260200190815260200160002060008c73ffffffffffffffffffffffffffffffffffffffff1673ffffffffffffffffffffffffffffffffffffffff168152602001908152602001600020819055508160008085815260200190815260200160002060008b73ffffffffffffffffffffffffffffffffffffffff1673ffffffffffffffffffffffffffffffffffffffff1681526020019081526020016000206000828254610ebe91906129af565b9250508190555050505080610ed290612b1e565b9050610cdf565b508473ffffffffffffffffffffffffffffffffffffffff168673ffffffffffffffffffffffffffffffffffffffff168273ffffffffffffffffffffffffffffffffffffffff167f4a39dc06d4c0dbc64b70af90fd698a233a518aa5d07e595d983b8c0526c8f7fb8787604051610f509291906125f8565b60405180910390a4610f66818787878787611802565b505050505050565b600073ffffffffffffffffffffffffffffffffffffffff168373ffffffffffffffffffffffffffffffffffffffff161415610fde576040517f08c379a0000000000000000000000000000000000000000000000000000000008152600401610fd59061276c565b60405180910390fd5b6000610fe8610c06565b905061101881856000610ffa876119e9565b611003876119e9565b604051806020016040528060008152506117fa565b600080600085815260200190815260200160002060008673ffffffffffffffffffffffffffffffffffffffff1673ffffffffffffffffffffffffffffffffffffffff168152602001908152602001600020549050828110156110af576040517f08c379a00000000000000000000000000000000000000000000000000000000081526004016110a6906126ec565b60405180910390fd5b82810360008086815260200190815260200160002060008773ffffffffffffffffffffffffffffffffffffffff1673ffffffffffffffffffffffffffffffffffffffff16815260200190815260200160002081905550600073ffffffffffffffffffffffffffffffffffffffff168573ffffffffffffffffffffffffffffffffffffffff168373ffffffffffffffffffffffffffffffffffffffff167fc3d58168c5ae7397731d063d5bbf3d657854427343f4c083240f7aacaa2d0f62878760405161117c929190612867565b60405180910390a45050505050565b6001816000016000828254019250508190555050565b600081600001549050919050565b600073ffffffffffffffffffffffffffffffffffffffff168473ffffffffffffffffffffffffffffffffffffffff16141561121f576040517f08c379a00000000000000000000000000000000000000000000000000000000081526004016112169061282c565b60405180910390fd5b6000611229610c06565b905061124a8160008761123b886119e9565b611244886119e9565b876117fa565b8260008086815260200190815260200160002060008773ffffffffffffffffffffffffffffffffffffffff1673ffffffffffffffffffffffffffffffffffffffff16815260200190815260200160002060008282546112a991906129af565b925050819055508473ffffffffffffffffffffffffffffffffffffffff16600073ffffffffffffffffffffffffffffffffffffffff168273ffffffffffffffffffffffffffffffffffffffff167fc3d58168c5ae7397731d063d5bbf3d657854427343f4c083240f7aacaa2d0f628787604051611327929190612867565b60405180910390a461133e81600087878787611aaf565b5050505050565b6000600360009054906101000a900473ffffffffffffffffffffffffffffffffffffffff16905081600360006101000a81548173ffffffffffffffffffffffffffffffffffffffff021916908373ffffffffffffffffffffffffffffffffffffffff1602179055508173ffffffffffffffffffffffffffffffffffffffff168173ffffffffffffffffffffffffffffffffffffffff167f8be0079c531659141344cd1fd0a4f28419497f9722a3daafe3b4186f6b6457e060405160405180910390a35050565b8173ffffffffffffffffffffffffffffffffffffffff168373ffffffffffffffffffffffffffffffffffffffff16141561147a576040517f08c379a0000000000000000000000000000000000000000000000000000000008152600401611471906127cc565b60405180910390fd5b80600160008573ffffffffffffffffffffffffffffffffffffffff1673ffffffffffffffffffffffffffffffffffffffff16815260200190815260200160002060008473ffffffffffffffffffffffffffffffffffffffff1673ffffffffffffffffffffffffffffffffffffffff16815260200190815260200160002060006101000a81548160ff0219169083151502179055508173ffffffffffffffffffffffffffffffffffffffff168373ffffffffffffffffffffffffffffffffffffffff167f17307eab39ab6107e8899845ad3d59bd9653f200f220920489ca2b5937696c318360405161156b919061262f565b60405180910390a3505050565b600073ffffffffffffffffffffffffffffffffffffffff168473ffffffffffffffffffffffffffffffffffffffff1614156115e8576040517f08c379a00000000000000000000000000000000000000000000000000000000081526004016115df9061272c565b60405180910390fd5b60006115f2610c06565b9050611612818787611603886119e9565b61160c886119e9565b876117fa565b600080600086815260200190815260200160002060008873ffffffffffffffffffffffffffffffffffffffff1673ffffffffffffffffffffffffffffffffffffffff168152602001908152602001600020549050838110156116a9576040517f08c379a00000000000000000000000000000000000000000000000000000000081526004016116a09061278c565b60405180910390fd5b83810360008087815260200190815260200160002060008973ffffffffffffffffffffffffffffffffffffffff1673ffffffffffffffffffffffffffffffffffffffff168152602001908152602001600020819055508360008087815260200190815260200160002060008873ffffffffffffffffffffffffffffffffffffffff1673ffffffffffffffffffffffffffffffffffffffff168152602001908152602001600020600082825461175e91906129af565b925050819055508573ffffffffffffffffffffffffffffffffffffffff168773ffffffffffffffffffffffffffffffffffffffff168373ffffffffffffffffffffffffffffffffffffffff167fc3d58168c5ae7397731d063d5bbf3d657854427343f4c083240f7aacaa2d0f6288886040516117db929190612867565b60405180910390a46117f1828888888888611aaf565b50505050505050565b505050505050565b6118218473ffffffffffffffffffffffffffffffffffffffff16611c96565b156119e1578373ffffffffffffffffffffffffffffffffffffffff1663bc197c8187878686866040518663ffffffff1660e01b8152600401611867959493929190612514565b602060405180830381600087803b15801561188157600080fd5b505af19250505080156118b257506040513d601f19601f820116820180604052508101906118af9190612176565b60015b611958576118be612bf4565b806308c379a0141561191b57506118d36130af565b806118de575061191d565b806040517f08c379a0000000000000000000000000000000000000000000000000000000008152600401611912919061264a565b60405180910390fd5b505b6040517f08c379a000000000000000000000000000000000000000000000000000000000815260040161194f9061266c565b60405180910390fd5b63bc197c8160e01b7bffffffffffffffffffffffffffffffffffffffffffffffffffffffff1916817bffffffffffffffffffffffffffffffffffffffffffffffffffffffff1916146119df576040517f08c379a00000000000000000000000000000000000000000000000000000000081526004016119d69061268c565b60405180910390fd5b505b505050505050565b60606000600167ffffffffffffffff811115611a2e577f4e487b7100000000000000000000000000000000000000000000000000000000600052604160045260246000fd5b604051908082528060200260200182016040528015611a5c5781602001602082028036833780820191505090505b5090508281600081518110611a9a577f4e487b7100000000000000000000000000000000000000000000000000000000600052603260045260246000fd5b60200260200101818152505080915050919050565b611ace8473ffffffffffffffffffffffffffffffffffffffff16611c96565b15611c8e578373ffffffffffffffffffffffffffffffffffffffff1663f23a6e6187878686866040518663ffffffff1660e01b8152600401611b1495949392919061257c565b602060405180830381600087803b158015611b2e57600080fd5b505af1925050508015611b5f57506040513d601f19601f82011682018060405250810190611b5c9190612176565b60015b611c0557611b6b612bf4565b806308c379a01415611bc85750611b806130af565b80611b8b5750611bca565b806040517f08c379a0000000000000000000000000000000000000000000000000000000008152600401611bbf919061264a565b60405180910390fd5b505b6040517f08c379a0000000000000000000000000000000000000000000000000000000008152600401611bfc9061266c565b60405180910390fd5b63f23a6e6160e01b7bffffffffffffffffffffffffffffffffffffffffffffffffffffffff1916817bffffffffffffffffffffffffffffffffffffffffffffffffffffffff191614611c8c576040517f08c379a0000000000000000000000000000000000000000000000000000000008152600401611c839061268c565b60405180910390fd5b505b505050505050565b6000808273ffffffffffffffffffffffffffffffffffffffff163b119050919050565b6000611ccc611cc7846128b5565b612890565b90508083825260208201905082856020860282011115611ceb57600080fd5b60005b85811015611d1b5781611d018882611dcf565b845260208401935060208301925050600181019050611cee565b5050509392505050565b6000611d38611d33846128e1565b612890565b90508083825260208201905082856020860282011115611d5757600080fd5b60005b85811015611d875781611d6d8882611ea1565b845260208401935060208301925050600181019050611d5a565b5050509392505050565b6000611da4611d9f8461290d565b612890565b905082815260208101848484011115611dbc57600080fd5b611dc7848285612a79565b509392505050565b600081359050611dde81613145565b92915050565b600082601f830112611df557600080fd5b8135611e05848260208601611cb9565b91505092915050565b600082601f830112611e1f57600080fd5b8135611e2f848260208601611d25565b91505092915050565b600081359050611e478161315c565b92915050565b600081359050611e5c81613173565b92915050565b600081519050611e7181613173565b92915050565b600082601f830112611e8857600080fd5b8135611e98848260208601611d91565b91505092915050565b600081359050611eb08161318a565b92915050565b600060208284031215611ec857600080fd5b6000611ed684828501611dcf565b91505092915050565b60008060408385031215611ef257600080fd5b6000611f0085828601611dcf565b9250506020611f1185828601611dcf565b9150509250929050565b600080600080600060a08688031215611f3357600080fd5b6000611f4188828901611dcf565b9550506020611f5288828901611dcf565b945050604086013567ffffffffffffffff811115611f6f57600080fd5b611f7b88828901611e0e565b935050606086013567ffffffffffffffff811115611f9857600080fd5b611fa488828901611e0e565b925050608086013567ffffffffffffffff811115611fc157600080fd5b611fcd88828901611e77565b9150509295509295909350565b600080600080600060a08688031215611ff257600080fd5b600061200088828901611dcf565b955050602061201188828901611dcf565b945050604061202288828901611ea1565b935050606061203388828901611ea1565b925050608086013567ffffffffffffffff81111561205057600080fd5b61205c88828901611e77565b9150509295509295909350565b6000806040838503121561207c57600080fd5b600061208a85828601611dcf565b925050602061209b85828601611e38565b9150509250929050565b600080604083850312156120b857600080fd5b60006120c685828601611dcf565b92505060206120d785828601611ea1565b9150509250929050565b600080604083850312156120f457600080fd5b600083013567ffffffffffffffff81111561210e57600080fd5b61211a85828601611de4565b925050602083013567ffffffffffffffff81111561213757600080fd5b61214385828601611e0e565b9150509250929050565b60006020828403121561215f57600080fd5b600061216d84828501611e4d565b91505092915050565b60006020828403121561218857600080fd5b600061219684828501611e62565b91505092915050565b6000602082840312156121b157600080fd5b60006121bf84828501611ea1565b91505092915050565b60006121d483836124db565b60208301905092915050565b6121e981612a05565b82525050565b60006121fa8261294e565b612204818561297c565b935061220f8361293e565b8060005b8381101561224057815161222788826121c8565b97506122328361296f565b925050600181019050612213565b5085935050505092915050565b61225681612a17565b82525050565b600061226782612959565b612271818561298d565b9350612281818560208601612a88565b61228a81612c16565b840191505092915050565b60006122a082612964565b6122aa818561299e565b93506122ba818560208601612a88565b6122c381612c16565b840191505092915050565b60006122db60348361299e565b91506122e682612c34565b604082019050919050565b60006122fe60288361299e565b915061230982612c83565b604082019050919050565b6000612321602b8361299e565b915061232c82612cd2565b604082019050919050565b600061234460268361299e565b915061234f82612d21565b604082019050919050565b600061236760248361299e565b915061237282612d70565b604082019050919050565b600061238a60298361299e565b915061239582612dbf565b604082019050919050565b60006123ad60258361299e565b91506123b882612e0e565b604082019050919050565b60006123d060328361299e565b91506123db82612e5d565b604082019050919050565b60006123f360238361299e565b91506123fe82612eac565b604082019050919050565b6000612416602a8361299e565b915061242182612efb565b604082019050919050565b600061243960208361299e565b915061244482612f4a565b602082019050919050565b600061245c60298361299e565b915061246782612f73565b604082019050919050565b600061247f60298361299e565b915061248a82612fc2565b604082019050919050565b60006124a260288361299e565b91506124ad82613011565b604082019050919050565b60006124c560218361299e565b91506124d082613060565b604082019050919050565b6124e481612a6f565b82525050565b6124f381612a6f565b82525050565b600060208201905061250e60008301846121e0565b92915050565b600060a08201905061252960008301886121e0565b61253660208301876121e0565b818103604083015261254881866121ef565b9050818103606083015261255c81856121ef565b90508181036080830152612570818461225c565b90509695505050505050565b600060a08201905061259160008301886121e0565b61259e60208301876121e0565b6125ab60408301866124ea565b6125b860608301856124ea565b81810360808301526125ca818461225c565b90509695505050505050565b600060208201905081810360008301526125f081846121ef565b905092915050565b6000604082019050818103600083015261261281856121ef565b9050818103602083015261262681846121ef565b90509392505050565b6000602082019050612644600083018461224d565b92915050565b600060208201905081810360008301526126648184612295565b905092915050565b60006020820190508181036000830152612685816122ce565b9050919050565b600060208201905081810360008301526126a5816122f1565b9050919050565b600060208201905081810360008301526126c581612314565b9050919050565b600060208201905081810360008301526126e581612337565b9050919050565b600060208201905081810360008301526127058161235a565b9050919050565b600060208201905081810360008301526127258161237d565b9050919050565b60006020820190508181036000830152612745816123a0565b9050919050565b60006020820190508181036000830152612765816123c3565b9050919050565b60006020820190508181036000830152612785816123e6565b9050919050565b600060208201905081810360008301526127a581612409565b9050919050565b600060208201905081810360008301526127c58161242c565b9050919050565b600060208201905081810360008301526127e58161244f565b9050919050565b6000602082019050818103600083015261280581612472565b9050919050565b6000602082019050818103600083015261282581612495565b9050919050565b60006020820190508181036000830152612845816124b8565b9050919050565b600060208201905061286160008301846124ea565b92915050565b600060408201905061287c60008301856124ea565b61288960208301846124ea565b9392505050565b600061289a6128ab565b90506128a68282612aed565b919050565b6000604051905090565b600067ffffffffffffffff8211156128d0576128cf612bc5565b5b602082029050602081019050919050565b600067ffffffffffffffff8211156128fc576128fb612bc5565b5b602082029050602081019050919050565b600067ffffffffffffffff82111561292857612927612bc5565b5b61293182612c16565b9050602081019050919050565b6000819050602082019050919050565b600081519050919050565b600081519050919050565b600081519050919050565b6000602082019050919050565b600082825260208201905092915050565b600082825260208201905092915050565b600082825260208201905092915050565b60006129ba82612a6f565b91506129c583612a6f565b9250827fffffffffffffffffffffffffffffffffffffffffffffffffffffffffffffffff038211156129fa576129f9612b67565b5b828201905092915050565b6000612a1082612a4f565b9050919050565b60008115159050919050565b60007fffffffff0000000000000000000000000000000000000000000000000000000082169050919050565b600073ffffffffffffffffffffffffffffffffffffffff82169050919050565b6000819050919050565b82818337600083830152505050565b60005b83811015612aa6578082015181840152602081019050612a8b565b83811115612ab5576000848401525b50505050565b60006002820490506001821680612ad357607f821691505b60208210811415612ae757612ae6612b96565b5b50919050565b612af682612c16565b810181811067ffffffffffffffff82111715612b1557612b14612bc5565b5b80604052505050565b6000612b2982612a6f565b91507fffffffffffffffffffffffffffffffffffffffffffffffffffffffffffffffff821415612b5c57612b5b612b67565b5b600182019050919050565b7f4e487b7100000000000000000000000000000000000000000000000000000000600052601160045260246000fd5b7f4e487b7100000000000000000000000000000000000000000000000000000000600052602260045260246000fd5b7f4e487b7100000000000000000000000000000000000000000000000000000000600052604160045260246000fd5b600060033d1115612c135760046000803e612c10600051612c27565b90505b90565b6000601f19601f8301169050919050565b60008160e01c9050919050565b7f455243313135353a207472616e7366657220746f206e6f6e204552433131353560008201527f526563656976657220696d706c656d656e746572000000000000000000000000602082015250565b7f455243313135353a204552433131353552656365697665722072656a6563746560008201527f6420746f6b656e73000000000000000000000000000000000000000000000000602082015250565b7f455243313135353a2062616c616e636520717565727920666f7220746865207a60008201527f65726f2061646472657373000000000000000000000000000000000000000000602082015250565b7f4f776e61626c653a206e6577206f776e657220697320746865207a65726f206160008201527f6464726573730000000000000000000000000000000000000000000000000000602082015250565b7f455243313135353a206275726e20616d6f756e7420657863656564732062616c60008201527f616e636500000000000000000000000000000000000000000000000000000000602082015250565b7f455243313135353a2063616c6c6572206973206e6f74206f776e6572206e6f7260008201527f20617070726f7665640000000000000000000000000000000000000000000000602082015250565b7f455243313135353a207472616e7366657220746f20746865207a65726f20616460008201527f6472657373000000000000000000000000000000000000000000000000000000602082015250565b7f455243313135353a207472616e736665722063616c6c6572206973206e6f742060008201527f6f776e6572206e6f7220617070726f7665640000000000000000000000000000602082015250565b7f455243313135353a206275726e2066726f6d20746865207a65726f206164647260008201527f6573730000000000000000000000000000000000000000000000000000000000602082015250565b7f455243313135353a20696e73756666696369656e742062616c616e636520666f60008201527f72207472616e7366657200000000000000000000000000000000000000000000602082015250565b7f4f776e61626c653a2063616c6c6572206973206e6f7420746865206f776e6572600082015250565b7f455243313135353a2073657474696e6720617070726f76616c2073746174757360008201527f20666f722073656c660000000000000000000000000000000000000000000000602082015250565b7f455243313135353a206163636f756e747320616e6420696473206c656e67746860008201527f206d69736d617463680000000000000000000000000000000000000000000000602082015250565b7f455243313135353a2069647320616e6420616d6f756e7473206c656e6774682060008201527f6d69736d61746368000000000000000000000000000000000000000000000000602082015250565b7f455243313135353a206d696e7420746f20746865207a65726f2061646472657360008201527f7300000000000000000000000000000000000000000000000000000000000000602082015250565b600060443d10156130bf57613142565b6130c76128ab565b60043d036004823e80513d602482011167ffffffffffffffff821117156130ef575050613142565b808201805167ffffffffffffffff81111561310d5750505050613142565b80602083010160043d03850181111561312a575050505050613142565b61313982602001850186612aed565b82955050505050505b90565b61314e81612a05565b811461315957600080fd5b50565b61316581612a17565b811461317057600080fd5b50565b61317c81612a23565b811461318757600080fd5b50565b61319381612a6f565b811461319e57600080fd5b5056fea26469706673582212205c00abf045a4dd4288da1e82b82ce2abd5a0b13b301f33f8d255cf5b8879847564736f6c63430008040033",
  "linkReferences": {},
  "deployedLinkReferences": {}
}