{
  "_format": "hh-sol-artifact-1",
  "contractName": "NFTMarket",
  "sourceName": "contracts/NFTMarket.sol",
  "abi": [
    {
      "anonymous": false,
      "inputs": [
        {
          "indexed": true,
          "internalType": "uint256",
          "name": "itemId",
          "type": "uint256"
        },
        {
          "indexed": true,
          "internalType": "address",
          "name": "nftContract",
          "type": "address"
        },
        {
          "indexed": false,
          "internalType": "address",
          "name": "collectionAddress",
          "type": "address"
        },
        {
          "indexed": true,
          "internalType": "uint256",
          "name": "tokenId",
          "type": "uint256"
        },
        {
          "indexed": false,
          "internalType": "address",
          "name": "owner",
          "type": "address"
        },
        {
          "indexed": false,
          "internalType": "uint256",
          "name": "price",
          "type": "uint256"
        },
        {
          "indexed": false,
          "internalType": "bool",
          "name": "sold",
          "type": "bool"
        }
      ],
      "name": "MarketItemCreated",
      "type": "event"
    },
    {
      "inputs": [
        {
          "internalType": "address",
          "name": "NFTaddress",
          "type": "address"
        },
        {
          "internalType": "address",
          "name": "collectionAddress",
          "type": "address"
        },
        {
          "internalType": "uint256",
          "name": "id",
          "type": "uint256"
        },
        {
          "internalType": "uint256",
          "name": "price",
          "type": "uint256"
        }
      ],
      "name": "ListNFT",
      "outputs": [],
      "stateMutability": "nonpayable",
      "type": "function"
    },
    {
      "inputs": [],
      "name": "fetchAllCollection",
      "outputs": [
        {
          "components": [
            {
              "internalType": "uint256",
              "name": "itemId",
              "type": "uint256"
            },
            {
              "internalType": "address",
              "name": "nftAddress",
              "type": "address"
            },
            {
              "internalType": "address",
              "name": "collectionAddress",
              "type": "address"
            },
            {
              "internalType": "uint256",
              "name": "tokenId",
              "type": "uint256"
            },
            {
              "internalType": "address payable",
              "name": "owner",
              "type": "address"
            },
            {
              "internalType": "uint256",
              "name": "price",
              "type": "uint256"
            },
            {
              "internalType": "bool",
              "name": "sold",
              "type": "bool"
            }
          ],
          "internalType": "struct NFTMarket.MarketItem[]",
          "name": "",
          "type": "tuple[]"
        }
      ],
      "stateMutability": "view",
      "type": "function"
    },
    {
      "inputs": [
        {
          "internalType": "address",
          "name": "",
          "type": "address"
        },
        {
          "internalType": "address",
          "name": "",
          "type": "address"
        },
        {
          "internalType": "uint256[]",
          "name": "",
          "type": "uint256[]"
        },
        {
          "internalType": "uint256[]",
          "name": "",
          "type": "uint256[]"
        },
        {
          "internalType": "bytes",
          "name": "",
          "type": "bytes"
        }
      ],
      "name": "onERC1155BatchReceived",
      "outputs": [
        {
          "internalType": "bytes4",
          "name": "",
          "type": "bytes4"
        }
      ],
      "stateMutability": "nonpayable",
      "type": "function"
    },
    {
      "inputs": [
        {
          "internalType": "address",
          "name": "",
          "type": "address"
        },
        {
          "internalType": "address",
          "name": "",
          "type": "address"
        },
        {
          "internalType": "uint256",
          "name": "",
          "type": "uint256"
        },
        {
          "internalType": "uint256",
          "name": "",
          "type": "uint256"
        },
        {
          "internalType": "bytes",
          "name": "",
          "type": "bytes"
        }
      ],
      "name": "onERC1155Received",
      "outputs": [
        {
          "internalType": "bytes4",
          "name": "",
          "type": "bytes4"
        }
      ],
      "stateMutability": "nonpayable",
      "type": "function"
    },
    {
      "inputs": [
        {
          "internalType": "uint256",
          "name": "itemId",
          "type": "uint256"
        }
      ],
      "name": "performATransaction",
      "outputs": [],
      "stateMutability": "payable",
      "type": "function"
    },
    {
      "inputs": [
        {
          "internalType": "bytes4",
          "name": "interfaceId",
          "type": "bytes4"
        }
      ],
      "name": "supportsInterface",
      "outputs": [
        {
          "internalType": "bool",
          "name": "",
          "type": "bool"
        }
      ],
      "stateMutability": "view",
      "type": "function"
    }
  ],
  "bytecode": "0x608060405234801561001057600080fd5b506001600081905550611a65806100286000396000f3fe6080604052600436106100555760003560e01c806301ffc9a71461005a57806342fcd7c5146100975780637054ef1c146100c2578063762c5ce2146100eb578063bc197c8114610107578063f23a6e6114610144575b600080fd5b34801561006657600080fd5b50610081600480360381019061007c9190611119565b610181565b60405161008e91906114b6565b60405180910390f35b3480156100a357600080fd5b506100ac6101fb565b6040516100b99190611494565b60405180910390f35b3480156100ce57600080fd5b506100e960048036038101906100e49190611027565b6104c2565b005b61010560048036038101906101009190611142565b610873565b005b34801561011357600080fd5b5061012e60048036038101906101299190610f68565b610c9f565b60405161013b91906114d1565b60405180910390f35b34801561015057600080fd5b5061016b6004803603810190610166919061108a565b610cb4565b60405161017891906114d1565b60405180910390f35b60007f4e2312e0000000000000000000000000000000000000000000000000000000007bffffffffffffffffffffffffffffffffffffffffffffffffffffffff1916827bffffffffffffffffffffffffffffffffffffffffffffffffffffffff191614806101f457506101f382610cc9565b5b9050919050565b606060006102096001610d33565b905060006102176002610d33565b6102216001610d33565b61022b919061172a565b90506000808267ffffffffffffffff811115610270577f4e487b7100000000000000000000000000000000000000000000000000000000600052604160045260246000fd5b6040519080825280602002602001820160405280156102a957816020015b610296610d57565b81526020019060019003908161028e5790505b50905060005b848110156104b757600360006001836102c89190611649565b815260200190815260200160002060060160009054906101000a900460ff166104a457600360006001836102fc9190611649565b81526020019081526020016000206040518060e0016040529081600082015481526020016001820160009054906101000a900473ffffffffffffffffffffffffffffffffffffffff1673ffffffffffffffffffffffffffffffffffffffff1673ffffffffffffffffffffffffffffffffffffffff1681526020016002820160009054906101000a900473ffffffffffffffffffffffffffffffffffffffff1673ffffffffffffffffffffffffffffffffffffffff1673ffffffffffffffffffffffffffffffffffffffff168152602001600382015481526020016004820160009054906101000a900473ffffffffffffffffffffffffffffffffffffffff1673ffffffffffffffffffffffffffffffffffffffff1673ffffffffffffffffffffffffffffffffffffffff168152602001600582015481526020016006820160009054906101000a900460ff161515151581525050828481518110610489577f4e487b7100000000000000000000000000000000000000000000000000000000600052603260045260246000fd5b60200260200101819052506001836104a19190611649565b92505b80806104af90611836565b9150506102af565b508094505050505090565b60026000541415610508576040517f08c379a00000000000000000000000000000000000000000000000000000000081526004016104ff9061152c565b60405180910390fd5b6002600081905550600084905060008173ffffffffffffffffffffffffffffffffffffffff1662fdd58e33866040518363ffffffff1660e01b815260040161055192919061146b565b60206040518083038186803b15801561056957600080fd5b505afa15801561057d573d6000803e3d6000fd5b505050506040513d601f19601f820116820180604052508101906105a1919061116b565b116105e1576040517f08c379a00000000000000000000000000000000000000000000000000000000081526004016105d8906114ec565b60405180910390fd5b6105eb6001610d41565b60006105f76001610d33565b90506040518060e001604052808281526020018773ffffffffffffffffffffffffffffffffffffffff1681526020018673ffffffffffffffffffffffffffffffffffffffff1681526020018581526020013373ffffffffffffffffffffffffffffffffffffffff16815260200184815260200160001515815250600360008381526020019081526020016000206000820151816000015560208201518160010160006101000a81548173ffffffffffffffffffffffffffffffffffffffff021916908373ffffffffffffffffffffffffffffffffffffffff16021790555060408201518160020160006101000a81548173ffffffffffffffffffffffffffffffffffffffff021916908373ffffffffffffffffffffffffffffffffffffffff1602179055506060820151816003015560808201518160040160006101000a81548173ffffffffffffffffffffffffffffffffffffffff021916908373ffffffffffffffffffffffffffffffffffffffff16021790555060a0820151816005015560c08201518160060160006101000a81548160ff0219169083151502179055509050508173ffffffffffffffffffffffffffffffffffffffff1663f242432a33308760016040518563ffffffff1660e01b81526004016107da9493929190611413565b600060405180830381600087803b1580156107f457600080fd5b505af1158015610808573d6000803e3d6000fd5b50505050838673ffffffffffffffffffffffffffffffffffffffff16827f8b5c56fa3ce5fe28f95f3958b2d58be4d9dcb5c55e5d918ae5fc31a9215f5645883388600060405161085b94939291906113ce565b60405180910390a45050600160008190555050505050565b600260005414156108b9576040517f08c379a00000000000000000000000000000000000000000000000000000000081526004016108b09061152c565b60405180910390fd5b60026000819055506000600360008381526020019081526020016000209050600015158160060160009054906101000a900460ff16151514610930576040517f08c379a00000000000000000000000000000000000000000000000000000000081526004016109279061154c565b60405180910390fd5b80600501543414610976576040517f08c379a000000000000000000000000000000000000000000000000000000000815260040161096d9061150c565b60405180910390fd5b60008160010160009054906101000a900473ffffffffffffffffffffffffffffffffffffffff1690508073ffffffffffffffffffffffffffffffffffffffff1663f242432a3033856003015460016040518563ffffffff1660e01b81526004016109e39493929190611413565b600060405180830381600087803b1580156109fd57600080fd5b505af1158015610a11573d6000803e3d6000fd5b5050505060008260010160009054906101000a900473ffffffffffffffffffffffffffffffffffffffff16905060008173ffffffffffffffffffffffffffffffffffffffff1663ced72f876040518163ffffffff1660e01b815260040160206040518083038186803b158015610a8657600080fd5b505afa158015610a9a573d6000803e3d6000fd5b505050506040513d601f19601f82011682018060405250810190610abe919061116b565b905060006103e8828660050154610ad591906116d0565b610adf919061169f565b905060008373ffffffffffffffffffffffffffffffffffffffff16630ee2cb106040518163ffffffff1660e01b815260040160206040518083038186803b158015610b2957600080fd5b505afa158015610b3d573d6000803e3d6000fd5b505050506040513d601f19601f82011682018060405250810190610b619190610f3f565b90508560040160009054906101000a900473ffffffffffffffffffffffffffffffffffffffff1673ffffffffffffffffffffffffffffffffffffffff166108fc838860050154610bb1919061172a565b9081150290604051600060405180830381858888f19350505050158015610bdc573d6000803e3d6000fd5b508073ffffffffffffffffffffffffffffffffffffffff166108fc839081150290604051600060405180830381858888f19350505050158015610c23573d6000803e3d6000fd5b50338660040160006101000a81548173ffffffffffffffffffffffffffffffffffffffff021916908373ffffffffffffffffffffffffffffffffffffffff16021790555060018660060160006101000a81548160ff021916908315150217905550610c8e6002610d41565b505050505050600160008190555050565b600063bc197c8160e01b905095945050505050565b600063f23a6e6160e01b905095945050505050565b60007f01ffc9a7000000000000000000000000000000000000000000000000000000007bffffffffffffffffffffffffffffffffffffffffffffffffffffffff1916827bffffffffffffffffffffffffffffffffffffffffffffffffffffffff1916149050919050565b600081600001549050919050565b6001816000016000828254019250508190555050565b6040518060e0016040528060008152602001600073ffffffffffffffffffffffffffffffffffffffff168152602001600073ffffffffffffffffffffffffffffffffffffffff16815260200160008152602001600073ffffffffffffffffffffffffffffffffffffffff168152602001600081526020016000151581525090565b6000610deb610de684611591565b61156c565b90508083825260208201905082856020860282011115610e0a57600080fd5b60005b85811015610e3a5781610e208882610f15565b845260208401935060208301925050600181019050610e0d565b5050509392505050565b6000610e57610e52846115bd565b61156c565b905082815260208101848484011115610e6f57600080fd5b610e7a8482856117f6565b509392505050565b600081359050610e91816119ea565b92915050565b600081519050610ea6816119ea565b92915050565b600082601f830112610ebd57600080fd5b8135610ecd848260208601610dd8565b91505092915050565b600081359050610ee581611a01565b92915050565b600082601f830112610efc57600080fd5b8135610f0c848260208601610e44565b91505092915050565b600081359050610f2481611a18565b92915050565b600081519050610f3981611a18565b92915050565b600060208284031215610f5157600080fd5b6000610f5f84828501610e97565b91505092915050565b600080600080600060a08688031215610f8057600080fd5b6000610f8e88828901610e82565b9550506020610f9f88828901610e82565b945050604086013567ffffffffffffffff811115610fbc57600080fd5b610fc888828901610eac565b935050606086013567ffffffffffffffff811115610fe557600080fd5b610ff188828901610eac565b925050608086013567ffffffffffffffff81111561100e57600080fd5b61101a88828901610eeb565b9150509295509295909350565b6000806000806080858703121561103d57600080fd5b600061104b87828801610e82565b945050602061105c87828801610e82565b935050604061106d87828801610f15565b925050606061107e87828801610f15565b91505092959194509250565b600080600080600060a086880312156110a257600080fd5b60006110b088828901610e82565b95505060206110c188828901610e82565b94505060406110d288828901610f15565b93505060606110e388828901610f15565b925050608086013567ffffffffffffffff81111561110057600080fd5b61110c88828901610eeb565b9150509295509295909350565b60006020828403121561112b57600080fd5b600061113984828501610ed6565b91505092915050565b60006020828403121561115457600080fd5b600061116284828501610f15565b91505092915050565b60006020828403121561117d57600080fd5b600061118b84828501610f2a565b91505092915050565b60006111a08383611322565b60e08301905092915050565b6111b581611770565b82525050565b6111c48161175e565b82525050565b6111d38161175e565b82525050565b60006111e4826115fe565b6111ee8185611616565b93506111f9836115ee565b8060005b8381101561122a5781516112118882611194565b975061121c83611609565b9250506001810190506111fd565b5085935050505092915050565b61124081611782565b82525050565b61124f81611782565b82525050565b61125e8161178e565b82525050565b61126d816117e4565b82525050565b6000611280601f83611638565b915061128b8261191d565b602082019050919050565b60006112a3601f83611638565b91506112ae82611946565b602082019050919050565b60006112c6600083611627565b91506112d18261196f565b600082019050919050565b60006112e9601f83611638565b91506112f482611972565b602082019050919050565b600061130c603183611638565b91506113178261199b565b604082019050919050565b60e08201600082015161133860008501826113b0565b50602082015161134b60208501826111bb565b50604082015161135e60408501826111bb565b50606082015161137160608501826113b0565b50608082015161138460808501826111ac565b5060a082015161139760a08501826113b0565b5060c08201516113aa60c0850182611237565b50505050565b6113b9816117da565b82525050565b6113c8816117da565b82525050565b60006080820190506113e360008301876111ca565b6113f060208301866111ca565b6113fd60408301856113bf565b61140a6060830184611246565b95945050505050565b600060a08201905061142860008301876111ca565b61143560208301866111ca565b61144260408301856113bf565b61144f6060830184611264565b8181036080830152611460816112b9565b905095945050505050565b600060408201905061148060008301856111ca565b61148d60208301846113bf565b9392505050565b600060208201905081810360008301526114ae81846111d9565b905092915050565b60006020820190506114cb6000830184611246565b92915050565b60006020820190506114e66000830184611255565b92915050565b6000602082019050818103600083015261150581611273565b9050919050565b6000602082019050818103600083015261152581611296565b9050919050565b60006020820190508181036000830152611545816112dc565b9050919050565b60006020820190508181036000830152611565816112ff565b9050919050565b6000611576611587565b90506115828282611805565b919050565b6000604051905090565b600067ffffffffffffffff8211156115ac576115ab6118dd565b5b602082029050602081019050919050565b600067ffffffffffffffff8211156115d8576115d76118dd565b5b6115e18261190c565b9050602081019050919050565b6000819050602082019050919050565b600081519050919050565b6000602082019050919050565b600082825260208201905092915050565b600082825260208201905092915050565b600082825260208201905092915050565b6000611654826117da565b915061165f836117da565b9250827fffffffffffffffffffffffffffffffffffffffffffffffffffffffffffffffff038211156116945761169361187f565b5b828201905092915050565b60006116aa826117da565b91506116b5836117da565b9250826116c5576116c46118ae565b5b828204905092915050565b60006116db826117da565b91506116e6836117da565b9250817fffffffffffffffffffffffffffffffffffffffffffffffffffffffffffffffff048311821515161561171f5761171e61187f565b5b828202905092915050565b6000611735826117da565b9150611740836117da565b9250828210156117535761175261187f565b5b828203905092915050565b6000611769826117ba565b9050919050565b600061177b826117ba565b9050919050565b60008115159050919050565b60007fffffffff0000000000000000000000000000000000000000000000000000000082169050919050565b600073ffffffffffffffffffffffffffffffffffffffff82169050919050565b6000819050919050565b60006117ef826117da565b9050919050565b82818337600083830152505050565b61180e8261190c565b810181811067ffffffffffffffff8211171561182d5761182c6118dd565b5b80604052505050565b6000611841826117da565b91507fffffffffffffffffffffffffffffffffffffffffffffffffffffffffffffffff8214156118745761187361187f565b5b600182019050919050565b7f4e487b7100000000000000000000000000000000000000000000000000000000600052601160045260246000fd5b7f4e487b7100000000000000000000000000000000000000000000000000000000600052601260045260246000fd5b7f4e487b7100000000000000000000000000000000000000000000000000000000600052604160045260246000fd5b6000601f19601f8301169050919050565b7f596f752063616e206f6e6c79206c69737420796f7572206f776e206e66747300600082015250565b7f506c656173652073656e642074686520636f727265637420616d6f756e742e00600082015250565b50565b7f5265656e7472616e637947756172643a207265656e7472616e742063616c6c00600082015250565b7f546865206974656d2068617320616c7265616479206265656e20736f6c642c2060008201527f74727920616e6f74686572206974656d2e000000000000000000000000000000602082015250565b6119f38161175e565b81146119fe57600080fd5b50565b611a0a8161178e565b8114611a1557600080fd5b50565b611a21816117da565b8114611a2c57600080fd5b5056fea2646970667358221220283814f17933d38f04ef8ee768250bbe2f82626e858ebf8156202bb4d1f6622664736f6c63430008040033",
  "linkReferences": {},
  "deployedLinkReferences": {}
}