{
  "_format": "hh-sol-artifact-1",
  "contractName": "NFTMarket",
  "sourceName": "contracts/NFTMarket.sol",
  "abi": [
    {
      "inputs": [
        {
          "internalType": "address payable",
          "name": "_feeWallet",
          "type": "address"
        }
      ],
      "stateMutability": "nonpayable",
      "type": "constructor"
    },
    {
      "anonymous": false,
      "inputs": [
        {
          "indexed": true,
          "internalType": "uint256",
          "name": "itemId",
          "type": "uint256"
        },
        {
          "indexed": true,
          "internalType": "address",
          "name": "nftContract",
          "type": "address"
        },
        {
          "indexed": false,
          "internalType": "address",
          "name": "collectionAddress",
          "type": "address"
        },
        {
          "indexed": true,
          "internalType": "uint256",
          "name": "tokenId",
          "type": "uint256"
        },
        {
          "indexed": false,
          "internalType": "address",
          "name": "owner",
          "type": "address"
        },
        {
          "indexed": false,
          "internalType": "uint256",
          "name": "price",
          "type": "uint256"
        },
        {
          "indexed": false,
          "internalType": "bool",
          "name": "sold",
          "type": "bool"
        }
      ],
      "name": "MarketItemCreated",
      "type": "event"
    },
    {
      "inputs": [
        {
          "internalType": "address",
          "name": "NFTaddress",
          "type": "address"
        },
        {
          "internalType": "address",
          "name": "collectionAddress",
          "type": "address"
        },
        {
          "internalType": "uint256",
          "name": "id",
          "type": "uint256"
        },
        {
          "internalType": "uint256",
          "name": "price",
          "type": "uint256"
        }
      ],
      "name": "ListNFT",
      "outputs": [],
      "stateMutability": "nonpayable",
      "type": "function"
    },
    {
      "inputs": [],
      "name": "fetchAllCollection",
      "outputs": [
        {
          "components": [
            {
              "internalType": "uint256",
              "name": "itemId",
              "type": "uint256"
            },
            {
              "internalType": "address",
              "name": "nftAddress",
              "type": "address"
            },
            {
              "internalType": "address",
              "name": "collectionAddress",
              "type": "address"
            },
            {
              "internalType": "uint256",
              "name": "tokenId",
              "type": "uint256"
            },
            {
              "internalType": "address payable",
              "name": "owner",
              "type": "address"
            },
            {
              "internalType": "uint256",
              "name": "price",
              "type": "uint256"
            },
            {
              "internalType": "bool",
              "name": "sold",
              "type": "bool"
            }
          ],
          "internalType": "struct NFTMarket.MarketItem[]",
          "name": "",
          "type": "tuple[]"
        }
      ],
      "stateMutability": "view",
      "type": "function"
    },
    {
      "inputs": [
        {
          "internalType": "address",
          "name": "",
          "type": "address"
        },
        {
          "internalType": "address",
          "name": "",
          "type": "address"
        },
        {
          "internalType": "uint256[]",
          "name": "",
          "type": "uint256[]"
        },
        {
          "internalType": "uint256[]",
          "name": "",
          "type": "uint256[]"
        },
        {
          "internalType": "bytes",
          "name": "",
          "type": "bytes"
        }
      ],
      "name": "onERC1155BatchReceived",
      "outputs": [
        {
          "internalType": "bytes4",
          "name": "",
          "type": "bytes4"
        }
      ],
      "stateMutability": "nonpayable",
      "type": "function"
    },
    {
      "inputs": [
        {
          "internalType": "address",
          "name": "",
          "type": "address"
        },
        {
          "internalType": "address",
          "name": "",
          "type": "address"
        },
        {
          "internalType": "uint256",
          "name": "",
          "type": "uint256"
        },
        {
          "internalType": "uint256",
          "name": "",
          "type": "uint256"
        },
        {
          "internalType": "bytes",
          "name": "",
          "type": "bytes"
        }
      ],
      "name": "onERC1155Received",
      "outputs": [
        {
          "internalType": "bytes4",
          "name": "",
          "type": "bytes4"
        }
      ],
      "stateMutability": "nonpayable",
      "type": "function"
    },
    {
      "inputs": [
        {
          "internalType": "uint256",
          "name": "itemId",
          "type": "uint256"
        }
      ],
      "name": "performATransaction",
      "outputs": [],
      "stateMutability": "payable",
      "type": "function"
    },
    {
      "inputs": [
        {
          "internalType": "bytes4",
          "name": "interfaceId",
          "type": "bytes4"
        }
      ],
      "name": "supportsInterface",
      "outputs": [
        {
          "internalType": "bool",
          "name": "",
          "type": "bool"
        }
      ],
      "stateMutability": "view",
      "type": "function"
    }
  ],
  "bytecode": "0x60806040523480156200001157600080fd5b5060405162001a4238038062001a4283398181016040528101906200003791906200009e565b600160008190555080600360006101000a81548173ffffffffffffffffffffffffffffffffffffffff021916908373ffffffffffffffffffffffffffffffffffffffff1602179055505062000118565b6000815190506200009881620000fe565b92915050565b600060208284031215620000b157600080fd5b6000620000c18482850162000087565b91505092915050565b6000620000d782620000de565b9050919050565b600073ffffffffffffffffffffffffffffffffffffffff82169050919050565b6200010981620000ca565b81146200011557600080fd5b50565b61191a80620001286000396000f3fe6080604052600436106100555760003560e01c806301ffc9a71461005a57806342fcd7c5146100975780637054ef1c146100c2578063762c5ce2146100eb578063bc197c8114610107578063f23a6e6114610144575b600080fd5b34801561006657600080fd5b50610081600480360381019061007c9190610fce565b610181565b60405161008e919061136b565b60405180910390f35b3480156100a357600080fd5b506100ac6101fb565b6040516100b99190611349565b60405180910390f35b3480156100ce57600080fd5b506100e960048036038101906100e49190610edc565b6104c2565b005b61010560048036038101906101009190610ff7565b610873565b005b34801561011357600080fd5b5061012e60048036038101906101299190610e1d565b610b92565b60405161013b9190611386565b60405180910390f35b34801561015057600080fd5b5061016b60048036038101906101669190610f3f565b610ba7565b6040516101789190611386565b60405180910390f35b60007f4e2312e0000000000000000000000000000000000000000000000000000000007bffffffffffffffffffffffffffffffffffffffffffffffffffffffff1916827bffffffffffffffffffffffffffffffffffffffffffffffffffffffff191614806101f457506101f382610bbc565b5b9050919050565b606060006102096001610c26565b905060006102176002610c26565b6102216001610c26565b61022b91906115df565b90506000808267ffffffffffffffff811115610270577f4e487b7100000000000000000000000000000000000000000000000000000000600052604160045260246000fd5b6040519080825280602002602001820160405280156102a957816020015b610296610c4a565b81526020019060019003908161028e5790505b50905060005b848110156104b757600460006001836102c891906114fe565b815260200190815260200160002060060160009054906101000a900460ff166104a457600460006001836102fc91906114fe565b81526020019081526020016000206040518060e0016040529081600082015481526020016001820160009054906101000a900473ffffffffffffffffffffffffffffffffffffffff1673ffffffffffffffffffffffffffffffffffffffff1673ffffffffffffffffffffffffffffffffffffffff1681526020016002820160009054906101000a900473ffffffffffffffffffffffffffffffffffffffff1673ffffffffffffffffffffffffffffffffffffffff1673ffffffffffffffffffffffffffffffffffffffff168152602001600382015481526020016004820160009054906101000a900473ffffffffffffffffffffffffffffffffffffffff1673ffffffffffffffffffffffffffffffffffffffff1673ffffffffffffffffffffffffffffffffffffffff168152602001600582015481526020016006820160009054906101000a900460ff161515151581525050828481518110610489577f4e487b7100000000000000000000000000000000000000000000000000000000600052603260045260246000fd5b60200260200101819052506001836104a191906114fe565b92505b80806104af906116eb565b9150506102af565b508094505050505090565b60026000541415610508576040517f08c379a00000000000000000000000000000000000000000000000000000000081526004016104ff906113e1565b60405180910390fd5b6002600081905550600084905060008173ffffffffffffffffffffffffffffffffffffffff1662fdd58e33866040518363ffffffff1660e01b8152600401610551929190611320565b60206040518083038186803b15801561056957600080fd5b505afa15801561057d573d6000803e3d6000fd5b505050506040513d601f19601f820116820180604052508101906105a19190611020565b116105e1576040517f08c379a00000000000000000000000000000000000000000000000000000000081526004016105d8906113a1565b60405180910390fd5b6105eb6001610c34565b60006105f76001610c26565b90506040518060e001604052808281526020018773ffffffffffffffffffffffffffffffffffffffff1681526020018673ffffffffffffffffffffffffffffffffffffffff1681526020018581526020013373ffffffffffffffffffffffffffffffffffffffff16815260200184815260200160001515815250600460008381526020019081526020016000206000820151816000015560208201518160010160006101000a81548173ffffffffffffffffffffffffffffffffffffffff021916908373ffffffffffffffffffffffffffffffffffffffff16021790555060408201518160020160006101000a81548173ffffffffffffffffffffffffffffffffffffffff021916908373ffffffffffffffffffffffffffffffffffffffff1602179055506060820151816003015560808201518160040160006101000a81548173ffffffffffffffffffffffffffffffffffffffff021916908373ffffffffffffffffffffffffffffffffffffffff16021790555060a0820151816005015560c08201518160060160006101000a81548160ff0219169083151502179055509050508173ffffffffffffffffffffffffffffffffffffffff1663f242432a33308760016040518563ffffffff1660e01b81526004016107da94939291906112c8565b600060405180830381600087803b1580156107f457600080fd5b505af1158015610808573d6000803e3d6000fd5b50505050838673ffffffffffffffffffffffffffffffffffffffff16827f8b5c56fa3ce5fe28f95f3958b2d58be4d9dcb5c55e5d918ae5fc31a9215f5645883388600060405161085b9493929190611283565b60405180910390a45050600160008190555050505050565b600260005414156108b9576040517f08c379a00000000000000000000000000000000000000000000000000000000081526004016108b0906113e1565b60405180910390fd5b60026000819055506000600460008381526020019081526020016000209050600015158160060160009054906101000a900460ff16151514610930576040517f08c379a000000000000000000000000000000000000000000000000000000000815260040161092790611401565b60405180910390fd5b80600501543414610976576040517f08c379a000000000000000000000000000000000000000000000000000000000815260040161096d906113c1565b60405180910390fd5b60008160010160009054906101000a900473ffffffffffffffffffffffffffffffffffffffff1690508073ffffffffffffffffffffffffffffffffffffffff1663f242432a3033856003015460016040518563ffffffff1660e01b81526004016109e394939291906112c8565b600060405180830381600087803b1580156109fd57600080fd5b505af1158015610a11573d6000803e3d6000fd5b5050505060006103e860198460050154610a2b9190611585565b610a359190611554565b90508260040160009054906101000a900473ffffffffffffffffffffffffffffffffffffffff1673ffffffffffffffffffffffffffffffffffffffff166108fc828560050154610a8591906115df565b9081150290604051600060405180830381858888f19350505050158015610ab0573d6000803e3d6000fd5b50600360009054906101000a900473ffffffffffffffffffffffffffffffffffffffff1673ffffffffffffffffffffffffffffffffffffffff166108fc829081150290604051600060405180830381858888f19350505050158015610b19573d6000803e3d6000fd5b50338360040160006101000a81548173ffffffffffffffffffffffffffffffffffffffff021916908373ffffffffffffffffffffffffffffffffffffffff16021790555060018360060160006101000a81548160ff021916908315150217905550610b846002610c34565b505050600160008190555050565b600063bc197c8160e01b905095945050505050565b600063f23a6e6160e01b905095945050505050565b60007f01ffc9a7000000000000000000000000000000000000000000000000000000007bffffffffffffffffffffffffffffffffffffffffffffffffffffffff1916827bffffffffffffffffffffffffffffffffffffffffffffffffffffffff1916149050919050565b600081600001549050919050565b6001816000016000828254019250508190555050565b6040518060e0016040528060008152602001600073ffffffffffffffffffffffffffffffffffffffff168152602001600073ffffffffffffffffffffffffffffffffffffffff16815260200160008152602001600073ffffffffffffffffffffffffffffffffffffffff168152602001600081526020016000151581525090565b6000610cde610cd984611446565b611421565b90508083825260208201905082856020860282011115610cfd57600080fd5b60005b85811015610d2d5781610d138882610df3565b845260208401935060208301925050600181019050610d00565b5050509392505050565b6000610d4a610d4584611472565b611421565b905082815260208101848484011115610d6257600080fd5b610d6d8482856116ab565b509392505050565b600081359050610d848161189f565b92915050565b600082601f830112610d9b57600080fd5b8135610dab848260208601610ccb565b91505092915050565b600081359050610dc3816118b6565b92915050565b600082601f830112610dda57600080fd5b8135610dea848260208601610d37565b91505092915050565b600081359050610e02816118cd565b92915050565b600081519050610e17816118cd565b92915050565b600080600080600060a08688031215610e3557600080fd5b6000610e4388828901610d75565b9550506020610e5488828901610d75565b945050604086013567ffffffffffffffff811115610e7157600080fd5b610e7d88828901610d8a565b935050606086013567ffffffffffffffff811115610e9a57600080fd5b610ea688828901610d8a565b925050608086013567ffffffffffffffff811115610ec357600080fd5b610ecf88828901610dc9565b9150509295509295909350565b60008060008060808587031215610ef257600080fd5b6000610f0087828801610d75565b9450506020610f1187828801610d75565b9350506040610f2287828801610df3565b9250506060610f3387828801610df3565b91505092959194509250565b600080600080600060a08688031215610f5757600080fd5b6000610f6588828901610d75565b9550506020610f7688828901610d75565b9450506040610f8788828901610df3565b9350506060610f9888828901610df3565b925050608086013567ffffffffffffffff811115610fb557600080fd5b610fc188828901610dc9565b9150509295509295909350565b600060208284031215610fe057600080fd5b6000610fee84828501610db4565b91505092915050565b60006020828403121561100957600080fd5b600061101784828501610df3565b91505092915050565b60006020828403121561103257600080fd5b600061104084828501610e08565b91505092915050565b600061105583836111d7565b60e08301905092915050565b61106a81611625565b82525050565b61107981611613565b82525050565b61108881611613565b82525050565b6000611099826114b3565b6110a381856114cb565b93506110ae836114a3565b8060005b838110156110df5781516110c68882611049565b97506110d1836114be565b9250506001810190506110b2565b5085935050505092915050565b6110f581611637565b82525050565b61110481611637565b82525050565b61111381611643565b82525050565b61112281611699565b82525050565b6000611135601f836114ed565b9150611140826117d2565b602082019050919050565b6000611158601f836114ed565b9150611163826117fb565b602082019050919050565b600061117b6000836114dc565b915061118682611824565b600082019050919050565b600061119e601f836114ed565b91506111a982611827565b602082019050919050565b60006111c16031836114ed565b91506111cc82611850565b604082019050919050565b60e0820160008201516111ed6000850182611265565b5060208201516112006020850182611070565b5060408201516112136040850182611070565b5060608201516112266060850182611265565b5060808201516112396080850182611061565b5060a082015161124c60a0850182611265565b5060c082015161125f60c08501826110ec565b50505050565b61126e8161168f565b82525050565b61127d8161168f565b82525050565b6000608082019050611298600083018761107f565b6112a5602083018661107f565b6112b26040830185611274565b6112bf60608301846110fb565b95945050505050565b600060a0820190506112dd600083018761107f565b6112ea602083018661107f565b6112f76040830185611274565b6113046060830184611119565b81810360808301526113158161116e565b905095945050505050565b6000604082019050611335600083018561107f565b6113426020830184611274565b9392505050565b60006020820190508181036000830152611363818461108e565b905092915050565b600060208201905061138060008301846110fb565b92915050565b600060208201905061139b600083018461110a565b92915050565b600060208201905081810360008301526113ba81611128565b9050919050565b600060208201905081810360008301526113da8161114b565b9050919050565b600060208201905081810360008301526113fa81611191565b9050919050565b6000602082019050818103600083015261141a816111b4565b9050919050565b600061142b61143c565b905061143782826116ba565b919050565b6000604051905090565b600067ffffffffffffffff82111561146157611460611792565b5b602082029050602081019050919050565b600067ffffffffffffffff82111561148d5761148c611792565b5b611496826117c1565b9050602081019050919050565b6000819050602082019050919050565b600081519050919050565b6000602082019050919050565b600082825260208201905092915050565b600082825260208201905092915050565b600082825260208201905092915050565b60006115098261168f565b91506115148361168f565b9250827fffffffffffffffffffffffffffffffffffffffffffffffffffffffffffffffff0382111561154957611548611734565b5b828201905092915050565b600061155f8261168f565b915061156a8361168f565b92508261157a57611579611763565b5b828204905092915050565b60006115908261168f565b915061159b8361168f565b9250817fffffffffffffffffffffffffffffffffffffffffffffffffffffffffffffffff04831182151516156115d4576115d3611734565b5b828202905092915050565b60006115ea8261168f565b91506115f58361168f565b92508282101561160857611607611734565b5b828203905092915050565b600061161e8261166f565b9050919050565b60006116308261166f565b9050919050565b60008115159050919050565b60007fffffffff0000000000000000000000000000000000000000000000000000000082169050919050565b600073ffffffffffffffffffffffffffffffffffffffff82169050919050565b6000819050919050565b60006116a48261168f565b9050919050565b82818337600083830152505050565b6116c3826117c1565b810181811067ffffffffffffffff821117156116e2576116e1611792565b5b80604052505050565b60006116f68261168f565b91507fffffffffffffffffffffffffffffffffffffffffffffffffffffffffffffffff82141561172957611728611734565b5b600182019050919050565b7f4e487b7100000000000000000000000000000000000000000000000000000000600052601160045260246000fd5b7f4e487b7100000000000000000000000000000000000000000000000000000000600052601260045260246000fd5b7f4e487b7100000000000000000000000000000000000000000000000000000000600052604160045260246000fd5b6000601f19601f8301169050919050565b7f596f752063616e206f6e6c79206c69737420796f7572206f776e206e66747300600082015250565b7f506c656173652073656e642074686520636f727265637420616d6f756e742e00600082015250565b50565b7f5265656e7472616e637947756172643a207265656e7472616e742063616c6c00600082015250565b7f546865206974656d2068617320616c7265616479206265656e20736f6c642c2060008201527f74727920616e6f74686572206974656d2e000000000000000000000000000000602082015250565b6118a881611613565b81146118b357600080fd5b50565b6118bf81611643565b81146118ca57600080fd5b50565b6118d68161168f565b81146118e157600080fd5b5056fea264697066735822122005c78f3cab325f99d92ae52ec7f12a01e70492fac836f7745ecf0ac96749c81164736f6c63430008040033",
  "linkReferences": {},
  "deployedLinkReferences": {}
}